:1005B80090E600E054E74410F090E601E04440F093
:1005C80090E61074A0F090E611F000000090E6129A
:1005D80074F8F000000090E68D7440F00000009080
:0D05E800E65EE04418F0E04404F0D200228A
:0109270022AD
:02091B00D322E5
:02091D00D322E3
:02091F00D322E1
:0809070090E6BAE0F51ED322D0
:1008BC0090E740E51EF0E490E68AF090E68B04F0B9
:0208CC00D32235
:08090F0090E6BAE0F51DD322C9
:1008CE0090E740E51DF0E490E68AF090E68B04F0A8
:0208DE00D32223
:02092100D322DF
:02092300D322DD
:02092500D322DB
:10079F0090E6B9E0242F600D04701990E604E0FF95
:1007AF00430780800890E604E0FF53077F000000B6
:0707BF00EFF08002D322C31A
:0107C6002210
:10080800C0E0C083C082D2015391EF90E65D7401CD
:08081800F0D082D083D0E03261
:10083800C0E0C083C0825391EF90E65D7404F0D0AD
:0608480082D083D0E032F3
:10084E00C0E0C083C0825391EF90E65D7402F0D099
:06085E0082D083D0E032DD
:1006E300C0E0C083C082852925852A268526828588
:1006F3002583A37402F085212785222885288285F6
:100703002783A37407F05391EF90E65D7410F0D044
:0607130082D083D0E03229
:10082000C0E0C083C082D2035391EF90E65D7408AC
:08083000F0D082D083D0E03249
:1006A600C0E0C083C08290E680E030E72085212547
:1006B600852226852682852583A37402F08529272F
:1006C600852A28852882852783A37407F05391EF0E
:0D06D60090E65D7420F0D082D083D0E03239
:01092800329C
:01092900329B
:01092A00329A
:01092B003299
:1007EC00C0E0C083C08290E68D7440F05391EF90CE
:0C07FC00E65F7404F0D082D083D0E032BD
:10045E00C0E0C083C082C0D075D000C005C006C049
:01046E000786
:10046F0090E68DE0FF90E6A2E020E127E4FEEEC3E8
:10047F009F501B74802EF582E434E7F583E0FD7402
:10048F00C02EF582E434E7F583EDF00E80E090E6C0
:0C049F008FEFF05391EF90E65F7408F0CF
:0F04AB00D007D006D005D0D0D082D083D0E03299
:10086400C0E0C083C0825391EF90E65F7410F0D073
:0608740082D083D0E032C7
:10087A00C0E0C083C0825391EF90E65F7420F0D04D
:06088A0082D083D0E032B1
:10089000C0E0C083C0825391EF90E65F7440F0D017
:0608A00082D083D0E0329B
:1008A600C0E0C083C0825391EF90E65F7480F0D0C1
:0608B60082D083D0E03285
:01092C003298
:01092D003297
:01092E003296
:01092F003295
:010930003294
:010931003293
:010932003292
:010933003291
:010934003290
:01093500328F
:01093600328E
:01093700328D
:01093800328C
:01093900328B
:01093A00328A
:01093B003289
:01093C003288
:01093D003287
:01093E003286
:01093F003285
:010940003284
:010941003283
:010942003282
:010943003281
:010944003280
:01094500327F
:0A08FD0000010202030304040505D4
:1002B700E4F513F512F511F510F51A75B2FF75800F
:1002C700FFC203C200C202C2011205B87E067F0048
:1002D7008E238F24752B06752C1275210675221C0B
:1002E700752906752A43752D06752E6AEE54C0705A
:1002F700030203C07514007515808E168F17C3741B
:10030700A49FFF74069ECF2402CF3400FEE48F0F14
:100317008E0EF50DF50CF50BF50AF509F508AF0F7F
:10032700AE0EAD0DAC0CAB0BAA0AA909A808C312F7
:1003370008E05033E517250BF582E516350AF583F6
:10034700E0FFE515250BF582E514350AF583EFF097
:10035700E50B2401F50BE4350AF50AE43509F5093F
:10036700E43508F50880B78514238515247400241F
:1003770080FF740634FFFEC3E52C9FF52CE52B9E0A
:10038700F52BC3E5269FF526E5259EF525C3E5282C
:100397009FF528E5279EF527C3E5229FF522E5214E
:1003A7009EF521C3E52A9FF52AE5299EF529C3E590
:1003B7002E9FF52EE52D9EF52DD2E843D82090E609
:1003C70068E04409F090E65CE0443DF0D2AF90E687
:1003D70080E020E105D20412071990E680E054F787
:1003E700F0538EF8C203120927300105120080C2AC
:1003F7000130032912091B5024C2031207C720002A
:100407001690E682E030E704E020E1EF90E682E034
:1004170030E604E020E0E412074812091DE4F5186D
:10042700F51974002519F58274F03518F583E51A66
:10043700F0051A0519E51970020518B420E4E51846
:10044700B403DFE51890E690F0000000E51990E6A8
:0704570091F0000000808F0E
:0B05F50090E50DE030E402C322D322A9
:1000800090E6B9E0700302013F1470030201BC2442
:10009000FE700302023F24FB700302013914700357
:1000A00002013314700302012714700302012D248E
:1000B0000560030202A312091F40030202AF90E68B
:1000C000BBE024FE602714603824FD601114602713
:1000D00024067050E52390E6B3F0E524803C120539
:1000E000F5503EE52B90E6B3F0E52C802DE525900C
:1000F000E6B3F0E5268023E52790E6B3F0E5288017
:100100001990E6BAE0FF120774AA06A9077B01EA74
:10011000494B600DEE90E6B3F0EF90E6B4F00202CA
:10012000AF02029E02029E1208CE0202AF12090F17
:100130000202AF1209070202AF1208BC0202AF129C
:10014000092140030202AF90E6B8E0247F60151455
:10015000601924027063A200E43325E0FFA202E4E8
:10016000334F8041E490E740F0803F90E6BCE0549C
:100170007EFF7E00E0D394807C0040047D018002FD
:100180007D00EC4EFEED4F24FDF58274083EF583B4
:10019000E493FF3395E0FEEF24A1FFEE34E68F8277
:1001A000F583E0540190E740F0E4A3F090E68AF094
:1001B00090E68B7402F00202AF02029E1209234005
:1001C000030202AF90E6B8E024FE6016240260034A
:1001D0000202AF90E6BAE0B40105C2000202AF022B
:1001E000029E90E6BAE0705590E6BCE0547EFF7E39
:1001F00000E0D394807C0040047D0180027D00EC0F
:100200004EFEED4F24FDF58274083EF583E493FF26
:100210003395E0FEEF24A1FFEE34E68F82F583E014
:1002200054FEF090E6BCE05480131313541FFFE01B
:10023000540F2F90E683F0E04420F08072805F122C
:100240000925506B90E6B8E024FE60192402704E38
:1002500090E6BAE0B40104D200805490E6BAE064BB
:1002600002604C803990E6BCE0547EFF7E00E0D313
:1002700094807C0040047D0180027D00EC4EFEED08
:100280004F24FDF58274083EF583E493FF3395E037
:10029000FEEF24A1FFEE34E68F82F583800D90E619
:1002A000A0800812079F500790E6A0E04401F0905C
:0602B000E6A0E04480F02E
:0102B6002225
:03003300020917A8
:0409170053D8EF3290
:100600001201000200000040311305100000010239
:1006100000010A0600020000004001000902270054
:1006200001010080320904000003FF0000000705FB
:100630000102400000070581024000000705820317
:1006400000040009022700010100803209040000B3
:1006500003FF0000000705010240000007058102BA
:100660004000000705820340000004030904100352
:1006700042006F006E00670043006F006D002603AC
:10068000440065007600610073007400610074002E
:1006900069006F006E00200044006500760069006C
:0606A0006300650000008C
:03004300020500B3
:03005300020500A3
:100500000208080002084E00020838000208200015
:100510000206E3000206A6000209280002092900DB
:1005200002092A0002092B000207EC0002045E0007
:100530000208640002087A00020890000208A6007F
:1005400002092C000209290002092D0002092E00CF
:1005500002092F00020930000209310002093200AD
:1005600002093300020929000209290002092900B1
:100570000209340002093500020936000209370079
:10058000020938000209390002093A0002093B0059
:1005900002093C0002093D0002093E0002093F0039
:1005A0000209400002094100020942000209430019
:0805B0000209440002094500A4
:1007480090E682E030E004E020E60B90E682E030BC
:10075800E119E030E71590E680E04401F07F147E6F
:0C076800001204BA90E680E054FEF0227B
:1007190030040990E680E0440AF0800790E680E022
:100729004408F07FDC7E051204BA90E65D74FFF0A0
:0F07390090E65FF05391EF90E680E054F7F022E6
:02077400A907D3
:10077600AE2DAF2E8F828E83A3E064037017AD017A
:1007860019ED7001228F828E83E07C002FFDEC3EF6
:08079600FEAF0580DFE4FEFF69
:01079E002238
:1007C70090E682E044C0F090E681F04387010000A4
:0407D70000000022FC
:1004BA008E1B8F1C90E600E054187012E51C240174
:1004CA00FFE4351BC313F51BEF13F51C801590E6EB
:1004DA0000E05418FFBF100BE51C25E0F51CE51BD6
:1004EA0033F51BE51C151CAE1B7002151B4E60056F
:0604FA001207DB80EE2278
:1007DB007400F58690FDA57C05A3E582458370F931
:0107EB0022EB
:030000000208F102
:0C08F100787FE4F6D8FD75812E0202B776
:1008E000EB9FF5F0EA9E42F0E99D42F0E89C45F06E
:0108F00022E5
:00000001FF
