:0A0B9400000102020303040405053A
:1002B700E4F52CF52BF52AF52975B2FF7580FFC2F9
:1002C70003C200C202C2011206527E087F008E0AD4
:1002D7008F0B75120875131275080875091C7510B0
:1002E7000875114A751408751578EE54C070030225
:1002F70003BE752D00752E808E2F8F30C374A49F7B
:10030700FF74089ECF2402CF3400FEE48F288E2787
:10031700F526F525F524F523F522F521AF28AE2797
:10032700AD26AC25AB24AA23A922A821C31208F520
:100337005033E5302524F582E52F3523F583E0FF9B
:10034700E52E2524F582E52D3523F583EFF0E52409
:100357002401F524E43523F523E43522F522E43599
:1003670021F52180B7852D0A852E0B74002480FF87
:10037700740834FFFEC3E5139FF513E5129EF512CB
:10038700C3E50D9FF50DE50C9EF50CC3E50F9FF535
:100397000FE50E9EF50EC3E5099FF509E5089EF5E5
:1003A70008C3E5119FF511E5109EF510C3E5159FEC
:1003B700F515E5149EF514D2E843D82090E668E0D9
:1003C7004409F090E65CE0443DF0D2AF90E680E06F
:1003D70020E105D204120A1790E680E054F7F053A3
:1003E7008EF8C203120424300105120080C20130C6
:1003F70003F21206FE50EDC2031206D92000169032
:10040700E682E030E704E020E1EF90E682E030E6C4
:0D04170004E020E0E4120A461207FE80C750
:0B0B890090E50DE030E402C322D3220F
:1000800090E6B9E0700302013F1470030201BC2442
:10009000FE700302023F24FB700302013914700357
:1000A00002013314700302012714700302012D248E
:1000B0000560030202A3120BBA40030202AF90E6EE
:1000C000BBE024FE602714603824FD601114602713
:1000D00024067050E50A90E6B3F0E50B803C120B65
:1000E00089503EE51290E6B3F0E513802DE50C90C3
:1000F000E6B3F0E50D8023E50E90E6B3F0E50F8062
:100100001990E6BAE0FF120A72AA06A9077B01EA73
:10011000494B600DEE90E6B3F0EF90E6B4F00202CA
:10012000AF02029E02029E120B6B0202AF120BA6DE
:100130000202AF120B9E0202AF120B590202AF1263
:100140000BBC40030202AF90E6B8E0247F601514B8
:10015000601924027063A200E43325E0FFA202E4E8
:10016000334F8041E490E740F0803F90E6BCE0549C
:100170007EFF7E00E0D394807C0040047D018002FD
:100180007D00EC4EFEED4F2494F582740B3EF5831A
:10019000E493FF3395E0FEEF24A1FFEE34E68F8277
:1001A000F583E0540190E740F0E4A3F090E68AF094
:1001B00090E68B7402F00202AF02029E120BBE4068
:1001C000030202AF90E6B8E024FE6016240260034A
:1001D0000202AF90E6BAE0B40105C2000202AF022B
:1001E000029E90E6BAE0705590E6BCE0547EFF7E39
:1001F00000E0D394807C0040047D0180027D00EC0F
:100200004EFEED4F2494F582740B3EF583E493FF8C
:100210003395E0FEEF24A1FFEE34E68F82F583E014
:1002200054FEF090E6BCE05480131313541FFFE01B
:10023000540F2F90E683F0E04420F08072805F122C
:100240000BC0506B90E6B8E024FE60192402704E9B
:1002500090E6BAE0B40104D200805490E6BAE064BB
:1002600002604C803990E6BCE0547EFF7E00E0D313
:1002700094807C0040047D0180027D00EC4EFEED08
:100280004F2494F582740B3EF583E493FF3395E09D
:10029000FEEF24A1FFEE34E68F82F583800D90E619
:1002A000A08008120A9D500790E6A0E04401F0905B
:0602B000E6A0E04480F02E
:0102B6002225
:03003300020BB607
:040BB60053D8EF32EF
:1006520090E600E054E74410F090E601E04440F0F8
:1006620090E61074A0F090E611F000000090E612FF
:1006720074A2F000000090E61374A0F00000009055
:10068200E61474E2F000000090E61574E0F0000059
:100692000090E6917480F0000000F000000090E607
:1006A20095F0000000F043AF01120BAE90E67AE045
:1006B2004401F0E490E68AF090E68BF07A107B0039
:1006C2007D017F10120AE192047A107B007D017F86
:0606D20010120AC592049B
:0106D80022FF
:10042400E5AA30E0030204DBE5AA30E5030204DBBD
:1004340063800274F0F59A7400F59B74F8F59D746A
:1004440000F59E90E690E0FE90E691E07C002400AA
:10045400F536EC3EF53590E67BE0F537E0F538E02F
:10046400F539E53760046401705EE4FDFC90E680D4
:10047400E030E70875330275340080067533007583
:100484003440E4F531F532C3E5329534E531953342
:10049400502EE537700790E67CEDF08009E53414C2
:1004A400C39D90E67CF00DBD00010CE4B50507EC9E
:1004B400B40103E4FCFD0532E53270CB053180C79D
:1004C400E490E699F000000090E6987402F00000D1
:0704D4000090E6917480F036
:1004DB00E5AA20E269E5AA20E76463800174F4F5DC
:1004EB009A7400F59B74FCF59D7400F59E90E69450
:1004FB00E0FE90E695E07C002400F536EC3EF53509
:10050B00E4F531F532C3E5329536E53195355012C8
:10051B0090E67BE090E67CF00532E53270E7053142
:10052B0080E390E694E090E69CF000000090E69566
:0E053B00E090E69DF000000090E6957480F0E0
:01054900228F
:0206FE00D32205
:0207FE00D32204
:020BBA00D32244
:080B9E0090E6BAE0F51DD32238
:100B590090E740E51DF0E490E68AF090E68B04F01A
:020B6900D32295
:080BA60090E6BAE0F51CD32231
:100B6B0090E740E51CF0E490E68AF090E68B04F009
:020B7B00D32283
:020BBC00D32242
:020BBE00D32240
:020BC000D3223E
:100A9D0090E6B9E0242F600D04701990E604E0FF94
:100AAD00430780800890E604E0FF53077F000000B5
:070ABD00EFF08002D322C319
:010AC400220F
:100AFD00C0E0C083C082D2015391EF90E65D7401D6
:080B0D00F0D082D083D0E03269
:100B2D00C0E0C083C0825391EF90E65D7404F0D0B5
:060B3D0082D083D0E032FB
:100B4300C0E0C083C0825391EF90E65D7402F0D0A1
:060B530082D083D0E032E5
:10097B00C0E0C083C08285100C85110D850D82856A
:10098B000C83A37402F085080E85090F850F8285F1
:10099B000E83A37407F05391EF90E65D7410F0D0C3
:0609AB0082D083D0E0328F
:100B1500C0E0C083C082D2035391EF90E65D7408B4
:080B2500F0D082D083D0E03251
:10090600C0E0C083C08290E680E030E72085080C16
:1009160085090D850D82850C83A37402F085100E62
:1009260085110F850F82850E83A37407F05391EF0F
:0D09360090E65D7420F0D082D083D0E032D6
:010BC2003200
:010BC30032FF
:010BC40032FE
:010BC50032FD
:010BC60032FC
:010BC70032FB
:010BC80032FA
:010BC90032F9
:010BCA0032F8
:010BCB0032F7
:010BCC0032F6
:010BCD0032F5
:010BCE0032F4
:010BCF0032F3
:010BD00032F2
:010BD10032F1
:010BD20032F0
:010BD30032EF
:010BD40032EE
:010BD50032ED
:010BD60032EC
:010BD70032EB
:010BD80032EA
:010BD90032E9
:010BDA0032E8
:010BDB0032E7
:010BDC0032E6
:010BDD0032E5
:010BDE0032E4
:010BDF0032E3
:010BE00032E2
:010BE10032E1
:010BE20032E0
:010BE30032DF
:010BE40032DE
:010BE50032DD
:100800001201000200000040B404051000000102C3
:1008100003010A06000200000040010009022E0048
:1008200001010080320904000004FF0000000705F8
:10083000020200020007050402000200070586020A
:100840000002000705880200020009022E000101D3
:100850000080320904000004FF00000007050202C6
:100860004000000705040240000007058602400022
:100870000007058802400000040309041003430038
:10088000790070007200650073007300100355005A
:10089000670068006500740074006F000803310091
:0608A000320033000000ED
:100A460090E682E030E004E020E60B90E682E030BB
:100A5600E119E030E71590E680E04401F07F147E6E
:0C0A6600001207B890E680E054FEF02279
:100A170030040990E680E0440AF0800790E680E021
:100A27004408F07FDC7E051207B890E65D74FFF09E
:0F0A370090E65FF05391EF90E680E054F7F022E5
:080BAE00E4F51BD2E9D2AF22ED
:10094300AD0790E678E020E6F9C2E990E678E04466
:1009530080F0ED25E090E679F090E678E030E0F97C
:1009630090E678E04440F090E678E020E6F990E6FF
:0809730078E030E1D6D2E92260
:1009E500AC0790E678E020E6F9E51B702390E67801
:1009F500E04480F0EC25E090E679F08D16AF03A990
:100A0500077517018A188919E4F51A751B01D32290
:020A1500C322FA
:1009B100AC0790E678E020E6F9E51B702590E67833
:1009C100E04480F0EC25E0440190E679F08D16AF2B
:1009D10003A9077517018A188919E4F51A751B030C
:0409E100D322C32238
:03004B0002054A61
:10054A00C0E0C083C082C085C084C086758600C0F2
:10055A00D075D000C000C001C002C003C006C007E9
:10056A0090E678E030E206751B0602063490E678DB
:10057A00E020E10CE51B64026006751B07020634E5
:10058A00E51B24FE605F14603624FE700302062514
:10059A0024FC700302063124086003020634AB17F8
:1005AA00AA18A919AF1A051A8F827583001208A60C
:1005BA0090E679F0E51A65167070751B05806B90E8
:1005CA00E679E0AB17AA18A919AE1A8E82758300CC
:1005DA001208D3751B02E5166401704E90E678E0A6
:1005EA004420F08045E51624FEB51A0790E678E027
:1005FA004420F0E51614B51A0A90E678E04440F073
:10060A00751B0090E679E0AB17AA18A919AE1A8EE5
:10061A00827583001208D3051A800F90E678E044A9
:10062A0040F0751B008003751B005391DFD007D083
:10063A0006D003D002D001D000D0D0D086D084D04A
:08064A0085D082D083D0E0329C
:020A7200A907D2
:100A7400AE14AF158F828E83A3E064037017AD01AB
:100A840019ED7001228F828E83E07C002FFDEC3EF5
:080A9400FEAF0580DFE4FEFF68
:010A9C002237
:100AC5001209B1E51B24FA600E146006240770F3C1
:0C0AD500D322E4F51BD322E4F51BD3224E
:100AE1001209E5E51B24FA600E146006240770F371
:0C0AF100D322E4F51BD322E4F51BD32232
:1006D90090E682E044C0F090E681F0438701000093
:0406E90000000022EB
:1007B8008E318F3290E600E054187012E532240131
:1007C800FFE43531C313F531EF13F532801590E6A8
:1007D80000E05418FFBF100BE53225E0F532E53193
:1007E80033F531E5321532AE31700215314E600500
:0607F8001206ED80EE2266
:1006ED007400F58690FDA57C05A3E582458370F920
:0106FD0022DA
:03004300020700B1
:03005300020700A1
:10070000020AFD00020B4300020B2D00020B150034
:1007100002097B0002090600020BC200020BC300A3
:10072000020BC400020BC500020BC600020BC7007F
:10073000020BC800020BC900020BCA00020BCB005F
:10074000020BCC00020BC300020BCD00020BCE004B
:10075000020BCF00020BD000020BD100020BD20023
:10076000020BD300020BC300020BC300020BC30039
:10077000020BD400020BD500020BD600020BD700EF
:10078000020BD800020BD900020BDA00020BDB00CF
:10079000020BDC00020BDD00020BDE00020BDF00AF
:1007A000020BE000020BE100020BE200020BE3008F
:0807B000020BE400020BE5005E
:03000000020B7D73
:0C0B7D00787FE4F6D8FD7581390202B7DC
:1008A600BB010CE58229F582E5833AF583E0225007
:1008B60006E92582F8E622BBFE06E92582F8E22251
:0D08C600E58229F582E5833AF583E493226B
:1008D300F8BB010DE58229F582E5833AF583E8F05B
:1008E300225006E92582C8F622BBFE05E92582C807
:0208F300F222EF
:1008F500EB9FF5F0EA9E42F0E99D42F0E89C45F059
:0109050022CF
:00000001FF
