:1005A80090E600E054E74410F090E601E04440F0A3
:1005B80090E61074A0F090E611F000000090E612AA
:1005C80074FAF000000090E68D7440F0000000908E
:0D05D800E65EE04418F0E04404F0D200229A
:0105FF0022D9
:0205FD00D32207
:0209AA00D32256
:0209AC00D32254
:0809960090E6BAE0F51BD32244
:10094B0090E740E51BF0E490E68AF090E68B04F02C
:02095B00D322A5
:08099E0090E6BAE0F51AD3223D
:10095D0090E740E51AF0E490E68AF090E68B04F01B
:02096D00D32293
:0209AE00D32252
:0209B000D32250
:0209B200D3224E
:1008620090E6B9E0242F600D04701990E604E0FFD1
:10087200430780800890E604E0FF53077F000000F2
:07088200EFF08002D322C356
:01088900224C
:1005E500C0E0C083C082D2015391EF90E65D7401F3
:0805F500F0D082D083D0E03287
:1008C700C0E0C083C0825391EF90E65D7404F0D01E
:0608D70082D083D0E03264
:1008DD00C0E0C083C0825391EF90E65D7402F0D00A
:0608ED0082D083D0E0324E
:1007A600C0E0C083C082852925852A2685268285C4
:1007B6002583A37402F08521278522288528828532
:1007C6002783A37407F05391EF90E65D7410F0D081
:0607D60082D083D0E03266
:1008AF00C0E0C083C082D2035391EF90E65D74081D
:0808BF00F0D082D083D0E032BA
:1006B800C0E0C083C08290E680E030E72085212535
:1006C800852226852682852583A37402F08529271D
:1006D800852A28852882852783A37407F05391EFFC
:0D06E80090E65D7420F0D082D083D0E03227
:0109B4003210
:0109B500320F
:0109B600320E
:0109B700320D
:10041E00C0E0C083C082C0D075D000C004C005C08B
:01042E0007C6
:10042F00E4FF90E68D7440F0E4FDFC74002DF5823E
:10043F0074F03CF583EFF00F0DBD00010CE4B50532
:10044F00EAECB404E690E6907404F000000090E645
:10045F0091E4F00000007FFFFCFD74002DF5827425
:10046F00F03CF583EFF01F0DBD00010CE4B505EA7C
:10047F00ECB404E690E6907404F000000090E6916E
:10048F00E4F0000000FCFD74002DF58274F03CF5E3
:10049F0083EFF00F0DBD00010CE4B505EAECB404D9
:1004AF00E690E6907404F000000090E691E4F0000E
:1004BF000000FCFD74002DF58274F03CF583EFF025
:1004CF001F0DBD00010CE4B505EAECB404E690E69F
:1004DF00907404F000000090E691E4F000000053E7
:0804EF0091EF90E65F7404F048
:0F04F700D007D005D004D0D0D082D083D0E0324F
:10050600C0E0C083C082C0D075D000C005C006C0A0
:0105160007DD
:1005170090E68DE0FF90E6A2E020E127E4FEEEC33F
:100527009F501B74802EF582E434E7F583E0FD7459
:10053700C02EF582E434E7F583EDF00E80E090E617
:0C0547008FEFF05391EF90E65F7408F026
:0F055300D007D006D005D0D0D082D083D0E032F0
:1008F300C0E0C083C0825391EF90E65F7410F0D0E4
:0609030082D083D0E03237
:10090900C0E0C083C0825391EF90E65F7420F0D0BD
:0609190082D083D0E03221
:10091F00C0E0C083C0825391EF90E65F7440F0D087
:06092F0082D083D0E0320B
:10093500C0E0C083C0825391EF90E65F7480F0D031
:0609450082D083D0E032F5
:0109B800320C
:0109B900320B
:0109BA00320A
:0109BB003209
:0109BC003208
:0109BD003207
:0109BE003206
:0109BF003205
:0109C0003204
:0109C1003203
:0109C2003202
:0109C3003201
:0109C4003200
:0109C50032FF
:0109C60032FE
:0109C70032FD
:0109C80032FC
:0109C90032FB
:0109CA0032FA
:0109CB0032F9
:0109CC0032F8
:0109CD0032F7
:0109CE0032F6
:0109CF0032F5
:0109D00032F4
:0109D10032F3
:0A098C000001020203030404050544
:1002B700E4F513F512F511F510C203C200C202C22C
:1002C700011205A87E077F008E238F24752B0775E3
:1002D7002C1275210775221C752907752A43752D60
:1002E70007752E6AEE54C070030203B875140075C3
:1002F70015808E168F17C374A49FFF74079ECF2493
:1003070002CF3400FEE48F0F8E0EF50DF50CF50BC2
:10031700F50AF509F508AF0FAE0EAD0DAC0CAB0B3A
:10032700AA0AA909A808C312096F5033E517250BB4
:10033700F582E516350AF583E0FFE515250BF5820D
:10034700E514350AF583EFF0E50B2401F50BE435E9
:100357000AF50AE43509F509E43508F50880B78593
:10036700142385152474002480FF740734FFFEC30B
:10037700E52C9FF52CE52B9EF52BC3E5269FF5264F
:10038700E5259EF525C3E5289FF528E5279EF52752
:10039700C3E5229FF522E5219EF521C3E52A9FF5B6
:1003A7002AE5299EF529C3E52E9FF52EE52D9EF515
:1003B7002DD2E843D82090E668E04409F090E65C47
:1003C700E0443DF0D2AF90E680E020E105D2041290
:1003D70007DC90E680E054F7F0538EF8C20312056D
:1003E700FF300105120080C2013003F21205FD50F3
:1003F700EDC20312088A20001690E682E030E70477
:10040700E020E1EF90E682E030E604E020E0E4124D
:07041700080B1209AA80C7BF
:0B06F50090E509E030E402C322D322AC
:1000800090E6B9E0700302013F1470030201BC2442
:10009000FE700302023F24FB700302013914700357
:1000A00002013314700302012714700302012D248E
:1000B0000560030202A31209AC40030202AF90E6FE
:1000C000BBE024FE602714603824FD601114602713
:1000D00024067050E52390E6B3F0E524803C120638
:1000E000F5503EE52B90E6B3F0E52C802DE525900C
:1000F000E6B3F0E5268023E52790E6B3F0E5288017
:100100001990E6BAE0FF120837AA06A9077B01EAB0
:10011000494B600DEE90E6B3F0EF90E6B4F00202CA
:10012000AF02029E02029E12095D0202AF12099EF8
:100130000202AF1209960202AF12094B0202AF127D
:1001400009AE40030202AF90E6B8E0247F601514C8
:10015000601924027063A200E43325E0FFA202E4E8
:10016000334F8041E490E740F0803F90E6BCE0549C
:100170007EFF7E00E0D394807C0040047D018002FD
:100180007D00EC4EFEED4F248CF58274093EF58324
:10019000E493FF3395E0FEEF24A1FFEE34E68F8277
:1001A000F583E0540190E740F0E4A3F090E68AF094
:1001B00090E68B7402F00202AF02029E1209B04078
:1001C000030202AF90E6B8E024FE6016240260034A
:1001D0000202AF90E6BAE0B40105C2000202AF022B
:1001E000029E90E6BAE0705590E6BCE0547EFF7E39
:1001F00000E0D394807C0040047D0180027D00EC0F
:100200004EFEED4F248CF58274093EF583E493FF96
:100210003395E0FEEF24A1FFEE34E68F82F583E014
:1002200054FEF090E6BCE05480131313541FFFE01B
:10023000540F2F90E683F0E04420F08072805F122C
:1002400009B2506B90E6B8E024FE60192402704EAB
:1002500090E6BAE0B40104D200805490E6BAE064BB
:1002600002604C803990E6BCE0547EFF7E00E0D313
:1002700094807C0040047D0180027D00EC4EFEED08
:100280004F248CF58274093EF583E493FF3395E0A7
:10029000FEEF24A1FFEE34E68F82F583800D90E619
:1002A000A08008120862500790E6A0E04401F09098
:0602B000E6A0E04480F02E
:0102B6002225
:030033000209A619
:0409A60053D8EF3201
:100700001201000200000040311305100000010238
:1007100000010A0600020000004001000902270053
:1007200001010080320904000003FF0000000705FA
:100730000102400000070581024000000705820316
:1007400000040009022700010100803209040000B2
:1007500003FF0000000705010240000007058102B9
:100760004000000705820340000004030904100351
:1007700042006F006E00670043006F006D002603AB
:10078000440065007600610073007400610074002D
:1007900069006F006E00200044006500760069006B
:0607A0006300650000008B
:03004300020600B2
:03005300020600A2
:100600000205E5000208DD000208C7000208AF008D
:100610000207A6000206B8000209B4000209B500EC
:100620000209B6000209B70002041E000205060016
:100630000208F3000209090002091F00020935003F
:100640000209B8000209B5000209B9000209BA009E
:100650000209BB000209BC000209BD000209BE007C
:100660000209BF000209B5000209B5000209B50080
:100670000209C0000209C1000209C2000209C30048
:100680000209C4000209C5000209C6000209C70028
:100690000209C8000209C9000209CA000209CB0008
:1006A0000209CC000209CD000209CE000209CF00E8
:0806B0000209D0000209D1008B
:10080B0090E682E030E004E020E60B90E682E030F8
:10081B00E119E030E71590E680E04401F07F147EAB
:0C082B000012056290E680E054FEF0220E
:1007DC0030040990E680E0440AF0800790E680E05F
:1007EC004408F07FDC7E0512056290E65D74FFF034
:0F07FC0090E65FF05391EF90E680E054F7F02223
:02083700A9070F
:10083900AE2DAF2E8F828E83A3E064037017AD01B6
:1008490019ED7001228F828E83E07C002FFDEC3E32
:08085900FEAF0580DFE4FEFFA5
:010861002274
:10088A0090E682E044C0F090E681F04387010000E0
:04089A000000002238
:100562008E188F1990E600E054187012E5192401D4
:10057200FFE43518C313F518EF13F519801590E64B
:1005820000E05418FFBF100BE51925E0F519E51836
:1005920033F518E5191519AE18700215184E6005D5
:0605A20012089E80EE220B
:10089E007400F58690FDA57C05A3E582458370F96D
:0108AE002227
:0300000002098072
:0C098000787FE4F6D8FD75812E0202B7E6
:10096F00EB9FF5F0EA9E42F0E99D42F0E89C45F0DE
:01097F002255
:00000001FF
