:1004A70090E600E054E74410F090E601E04440F0A5
:1004B70090E61074A0F090E611F000000090E612AC
:1004C700749AF000000090E61474DAF000000090CF
:1004D700E68D7440F000000090E6917480F0000013
:1004E70000F000000090E65EE04418F0E04444F0BD
:0604F70043AF01D2002218
:0104FF0022DA
:0204FD00D32208
:0205FE00D32206
:02095800D322A8
:0809440090E6BAE0F51BD32296
:1008EE0090E740E51BF0E490E68AF090E68B04F08A
:0208FE00D32203
:08094C0090E6BAE0F51AD3228F
:1009000090E740E51AF0E490E68AF090E68B04F078
:02091000D322F0
:02095A00D322A6
:02095C00D322A4
:02095E00D322A2
:10080D0090E6B9E0242F600D04701990E604E0FF26
:10081D00430780800890E604E0FF53077F00000047
:07082D00EFF08002D322C3AB
:0108340022A1
:10089200C0E0C083C082D2015391EF90E65D740143
:0808A200F0D082D083D0E032D7
:1008C200C0E0C083C0825391EF90E65D7404F0D023
:0608D20082D083D0E03269
:1008D800C0E0C083C0825391EF90E65D7402F0D00F
:0608E80082D083D0E03253
:10075100C0E0C083C082852925852A268526828519
:100761002583A37402F08521278522288528828587
:100771002783A37407F05391EF90E65D7410F0D0D6
:0607810082D083D0E032BB
:1008AA00C0E0C083C082D2035391EF90E65D740822
:0808BA00F0D082D083D0E032BF
:10071400C0E0C083C08290E680E030E720852125D8
:10072400852226852682852583A37402F0852927C0
:10073400852A28852882852783A37407F05391EF9F
:0D07440090E65D7420F0D082D083D0E032CA
:010960003264
:010961003263
:010962003262
:010963003261
:10085A00C0E0C083C08290E68D7440F05391EF905F
:0C086A00E65F7404F0D082D083D0E0324E
:1006B800C0E0C083C082C0D075D000C005C006C0ED
:0106C800072A
:1006C90090E68DE0FF90E6A2E020E127E4FEEEC38C
:1006D9009F501B74802EF582E434E7F583E0FD74A6
:1006E900C02EF582E434E7F583EDF00E80E090E664
:0C06F9008FEFF05391EF90E65F7408F073
:0F070500D007D006D005D0D0D082D083D0E0323C
:10041E00C0E0C083C082C0D075D000C001C002C091
:07042E0004C005C006C00771
:10043500E5AA20E54F74F0F59A7400F59B74F8F57C
:100445009D7400F59E90E690E0FE90E691E07C00BC
:100455002400FFEC3EFEE4FDC3ED9FEC9E500F90A3
:10046500E67BE090E67CF00DBD00010C80EA90E6AD
:1004750090E090E698F000000090E691E090E69913
:0D048500F00000005391EF90E65F7410F05E
:10049200D007D006D005D004D002D001D0D0D0826F
:0504A200D083D0E03220
:010964003260
:10087600C0E0C083C08290E6917480F05391EF90FF
:0C088600E65F7440F0D082D083D0E032F6
:01096500325F
:01096600325E
:01096700325D
:01096800325C
:01096900325B
:01096A00325A
:01096B003259
:01096C003258
:01096D003257
:01096E003256
:01096F003255
:010970003254
:010971003253
:010972003252
:010973003251
:010974003250
:01097500324F
:01097600324E
:01097700324D
:01097800324C
:01097900324B
:01097A00324A
:01097B003249
:01097C003248
:01097D003247
:01097E003246
:01097F003245
:0A093A000001020203030404050596
:1002B700E4F513F512F511F510C203C200C202C22C
:1002C700011204A77E057F008E238F24752B0575E9
:1002D7002C1275210575221C752905752A4A752D5D
:1002E70005752E86EE54C070030203B875140075A9
:1002F70015808E168F17C374B69FFF74059ECF2483
:1003070002CF3400FEE48F0F8E0EF50DF50CF50BC2
:10031700F50AF509F508AF0FAE0EAD0DAC0CAB0B3A
:10032700AA0AA909A808C31209125033E517250B11
:10033700F582E516350AF583E0FFE515250BF5820D
:10034700E514350AF583EFF0E50B2401F50BE435E9
:100357000AF50AE43509F509E43508F50880B78593
:10036700142385152474002480FF740534FFFEC30D
:10037700E52C9FF52CE52B9EF52BC3E5269FF5264F
:10038700E5259EF525C3E5289FF528E5279EF52752
:10039700C3E5229FF522E5219EF521C3E52A9FF5B6
:1003A7002AE5299EF529C3E52E9FF52EE52D9EF515
:1003B7002DD2E843D82090E668E04409F090E65C47
:1003C700E0443DF0D2AF90E680E020E105D2041290
:1003D700078790E680E054F7F0538EF8C2031204C3
:1003E700FF300105120080C2013003F21204FD50F4
:1003F700EDC20312083520001690E682E030E704CC
:10040700E020E1EF90E682E030E604E020E0E4124D
:0704170007B61205FE80C7C5
:0B092F0090E50DE030E402C322D3226B
:1000800090E6B9E0700302013F1470030201BC2442
:10009000FE700302023F24FB700302013914700357
:1000A00002013314700302012714700302012D248E
:1000B0000560030202A312095840030202AF90E652
:1000C000BBE024FE602714603824FD601114602713
:1000D00024067050E52390E6B3F0E524803C120935
:1000E0002F503EE52B90E6B3F0E52C802DE52590D2
:1000F000E6B3F0E5268023E52790E6B3F0E5288017
:100100001990E6BAE0FF1207E2AA06A9077B01EA06
:10011000494B600DEE90E6B3F0EF90E6B4F00202CA
:10012000AF02029E02029E1209000202AF12094CA7
:100130000202AF1209440202AF1208EE0202AF122D
:10014000095A40030202AF90E6B8E0247F6015141C
:10015000601924027063A200E43325E0FFA202E4E8
:10016000334F8041E490E740F0803F90E6BCE0549C
:100170007EFF7E00E0D394807C0040047D018002FD
:100180007D00EC4EFEED4F243AF58274093EF58376
:10019000E493FF3395E0FEEF24A1FFEE34E68F8277
:1001A000F583E0540190E740F0E4A3F090E68AF094
:1001B00090E68B7402F00202AF02029E12095C40CC
:1001C000030202AF90E6B8E024FE6016240260034A
:1001D0000202AF90E6BAE0B40105C2000202AF022B
:1001E000029E90E6BAE0705590E6BCE0547EFF7E39
:1001F00000E0D394807C0040047D0180027D00EC0F
:100200004EFEED4F243AF58274093EF583E493FFE8
:100210003395E0FEEF24A1FFEE34E68F82F583E014
:1002200054FEF090E6BCE05480131313541FFFE01B
:10023000540F2F90E683F0E04420F08072805F122C
:10024000095E506B90E6B8E024FE60192402704EFF
:1002500090E6BAE0B40104D200805490E6BAE064BB
:1002600002604C803990E6BCE0547EFF7E00E0D313
:1002700094807C0040047D0180027D00EC4EFEED08
:100280004F243AF58274093EF583E493FF3395E0F9
:10029000FEEF24A1FFEE34E68F82F583800D90E619
:1002A000A0800812080D500790E6A0E04401F090ED
:0602B000E6A0E04480F02E
:0102B6002225
:030033000209546B
:0409540053D8EF3253
:100500001201000200000040B404051000000102C6
:1005100000010A06000200000040010009022E004E
:1005200001010080320904000004FF0000000705FB
:10053000010240000007058102400000070502019A
:100540000004000705860100040009023C000101C7
:100550000080320904000006FF00000007050102C8
:10056000400000070581024000000705020240002C
:10057000000705040240000007058602400000074E
:1005800005880240000004030904100343007900B9
:10059000700072006500730073001C0345005A0070
:1005A0002D0055005300420020004500500020005F
:0805B00049004E005400000058
:03004300020600B2
:03005300020600A2
:10060000020892000208D8000208C2000208AA00EC
:10061000020751000207140002096000020961008C
:10062000020962000209630002085A000206B800CB
:1006300002041E0002096400020876000209650037
:1006400002096600020961000209670002096800E8
:100650000209690002096A0002096B0002096C00C4
:1006600002096D00020961000209610002096100CE
:1006700002096E0002096F00020970000209710090
:100680000209720002097300020974000209750070
:100690000209760002097700020978000209790050
:1006A00002097A0002097B0002097C0002097D0030
:0806B00002097E0002097F002F
:1007B60090E682E030E004E020E60B90E682E0304E
:1007C600E119E030E71590E680E04401F07F147E01
:0C07D600001205B890E680E054FEF0220E
:1007870030040990E680E0440AF0800790E680E0B4
:100797004408F07FDC7E051205B890E65D74FFF033
:0F07A70090E65FF05391EF90E680E054F7F02278
:0207E200A90765
:1007E400AE2DAF2E8F828E83A3E064037017AD010C
:1007F40019ED7001228F828E83E07C002FFDEC3E88
:08080400FEAF0580DFE4FEFFFA
:01080C0022C9
:1008350090E682E044C0F090E681F0438701000035
:04084500000000228D
:1005B8008E188F1990E600E054187012E51924017E
:1005C800FFE43518C313F518EF13F519801590E6F5
:1005D80000E05418FFBF100BE51925E0F519E518E0
:1005E80033F518E5191519AE18700215184E60057F
:0605F80012084980EE220A
:100849007400F58690FDA57C05A3E582458370F9C2
:01085900227C
:03000000020923CF
:0C092300787FE4F6D8FD75812E0202B743
:10091200EB9FF5F0EA9E42F0E99D42F0E89C45F03B
:0109220022B2
:00000001FF
